:020000040800F2
:10000000D00A0020AD0100086D1D0008B91A0008D3
:10001000691D0008191700084F250008000000009E
:100020000000000000000000000000009320000815
:10003000BD18000800000000DD1D0008792100083F
:10004000C7010008C7010008C7010008591E0008C1
:10005000C7010008C7010008C7010008C701000860
:10006000C7010008C7010008C7010008C701000850
:10007000C7010008C7010008C7010008C701000840
:10008000C7010008C7010008C7010008C701000830
:10009000C7010008C7010008C7010008C11800080F
:1000A000C7010008C7010008C7010008C701000810
:1000B000C7010008C70100086D230008C701000838
:1000C000C7010008C7010008C7010008C7010008F0
:1000D000C7010008C70100084D250008C701000836
:1000E000BF180008C7010008C701000800F002F8A7
:1000F00000F04DF80AA090E8000C82448344AAF175
:100100000107DA4501D100F042F8AFF2090EBAE872
:100110000F0013F0010F18BFFB1A43F0010318473B
:100120001480000034800000103A24BF78C878C1E1
:10013000FAD8520724BF30C830C144BF04680C60ED
:10014000704700000023002400250026103A28BF35
:1001500078C1FBD8520728BF30C148BF0B60704739
:10016000662903F0AF82642900F0A480732900F0AF
:100170001484002070471FB500F014FC0400002018
:10018000002103F037F9E0601FBD10B510BD00F08D
:1001900009FD1146FFF7EFFF02F054FD00F027FDC7
:1001A00003B4FFF7F2FF03BC00F06AFD0948804783
:1001B00009480047FEE7FEE7FEE7FEE7FEE7FEE749
:1001C000FEE7FEE7FEE7FEE704480549054A064B61
:1001D00070470000D9220008ED000008D00400207C
:1001E000D00A0020D0060020D00600200FB41CB595
:1001F000074B06AA7B4469460090059800F0A3FBD4
:100200000020694600F0B2FB1CBC5DF814FB000046
:100210007507000070B5044685690068C10601D500
:10022000302600E02026C00707D070BDD4E90121A8
:1002300030469047206A401C20626D1EF6D570BD86
:1002400070B5044685690078C00707D170BDD4E950
:10025000012120209047206A401C20626D1EF6D5A7
:1002600070BD70B50C460546012A05D02878800679
:1002700000D5EA69002302E0012305E05B1C9342FC
:1002800002D2E05C0028F9D1A869E618C01AA8617A
:10029000286A184428622846FFF7BCFF04E0D5E925
:1002A000012114F8010B9047B442F8D32846FFF718
:1002B000C7FF70BD2DE9F04106460024106875297E
:1002C000314616A510D0AFF30080002802DA404274
:1002D00013A507E031688A0701D512A502E0490796
:1002E00004D511A5012401E0AFF3008000210A220A
:1002F00006F1240709E0B0FBF2FCB0FBF2F302FBCD
:100300001C00303078541846491C0028F3D123468D
:100310002A463046BDE8F04100F0A7B800000000D2
:100320002D0000002B000000200000002DE9F05FF0
:10033000894604464FF0000ADFF824B1FB44C0F8B8
:1003400020A02046E168884700287DD0252806D0D7
:10035000D4E901219047206A401C2062F1E7002582
:100360005F462046E16888472028064607DB312E95
:1003700005D2B81910F8200C08B10543F1E7A80719
:1003800001D525F00405C4F81CA00027C4F818A066
:100390002A2E09D0304602F0F0F838B304EB870873
:1003A000303EC8F8186019E059F8041B204604EBE9
:1003B00087029161E1688847012F064618D1E069FC
:1003C000002820DA25F020051DE0D8F8180000EB01
:1003D000800006EB40003038C8F818002046E1687D
:1003E0008847064602F0C9F80028EED1012F0AD04E
:1003F0002E2E08D12046E16888477F1C0646022F32
:1004000045F02005C4DBA069002803DA404245F02E
:100410000105A061E80701D025F01005A6B1A6F1FD
:100420004100192802D8203645F400654A46314675
:10043000204625604D46FFF793FE60B1012807D0A6
:10044000ED1D25F0070000E007E000F1080978E75E
:1004500005F1040975E730467AE7206ABDE8F09FA8
:100460004C7D00007047704770472DE9F0470D46FE
:1004700099469246044600F124080168880604D58E
:10048000E06921F01001216000E00120A84201DDB7
:10049000471B00E00027A1697A1902EB0900081A3E
:1004A000A0612078C00602D42046FFF7B3FE0026E4
:1004B00008E0D4E901211AF806009047206A401CA0
:1004C000761C20624E45F4DB2078C0060AD5204613
:1004D000FFF7A0FE06E0D4E9012130209047206A12
:1004E000401C2062381EA7F10107F4DC07E0D4E9C4
:1004F000012118F805009047206A401C2062281E40
:10050000A5F10105F3DC2046FFF79AFE20780006EE
:1005100002D50220BDE8F0870120FBE770472DE9F6
:10052000FF4F0C461E464FF0FF378BB0D2E900015B
:10053000DDF860800A908A46C1F30A5505B93D4648
:10054000002108464FF00000BAF1000F00F440000F
:1005500005DA00EB80004FF4400101EA50004FEA59
:100560009059B9F1010F00DDB9460A9850EA4A00E6
:100570000ED044F61050A5F2FF3545432F14B8F1C4
:10058000000F1ED07542291E1EDDC9F100021CE0BD
:10059000B8F1010F4FF0000001D0302103E0F24329
:1005A00005E02154401CB042FBDB30460022002114
:1005B00021540B99C1F80880C1E900200FB0BDE8B3
:1005C000F08FBD1B6D1CDEE74A4600DA694206A8C3
:1005D00000F072FA06AB93E8070003AB83E807006C
:1005E00050460A9900F053FB8DE80700A0F5005033
:1005F0001F3800900398002D0ADD42F21F014A4681
:100600000844002303A90390684600F0BCFD09E0FC
:10061000A0F500504A461F38002303A903906846FE
:1006200000F0C6FD8DE807000004000C03D04FF079
:10063000FF30410800E01046B8F1000F03D000225F
:10064000009215461EE0751E05D400F0AFF9303259
:1006500062556D1EF9D5B3460122084302D000222F
:100660007F1C04E02078302801D100227F1E002A60
:10067000099784D01DE0112D07DA00F097F9303288
:1006800062556D1C50EA0102F5D1084302D0009872
:10069000C8B10EE00021681E05E0235C625C635473
:1006A0002254401E491C8142F7DBAB46A81B401E6A
:1006B0000990002004F80B000B98099AC0F80880F4
:1006C000C0E9002B7AE711264FF0000857E72DE923
:1006D000F04F88460446D21D22F0070191B0D1E9BF
:1006E0000001CDE90A0101F034FF02460B98C00F6A
:1006F00001D02D2007E02068810701D52B2002E0E2
:10070000202101EAC000032A099001D0072A05DB55
:1007100003464146204600F08FF90BE12078800621
:1007200001D5E06900E00620B8F1650F814606D0EA
:10073000B8F1660F18D0B8F1670F70D131E0002022
:10074000B9F1110F009001DB112301E009F1010360
:100750000AAA01A90CA8FFF7E2FEDDE90C70002649
:1007600009F10105834647E001204B4600904FF018
:1007700000470AAA01A90CA8FFF7D1FEDDE90DB0D8
:100780000C995D46002610B909F101000D18B9EB6E
:10079000050003D4C0F1FF3609F10105A5EB0900FE
:1007A0002BE0B9F1010F01DA4FF001090020B9F196
:1007B000110F0090484601DD112300E003460AAA0C
:1007C00001A90CA8FFF7ABFEDDE90C704D46002631
:1007D0008346207800070AD4AB4500DA5D4601A8BD
:1007E000012D04DD411911F8011C302907D04F45B6
:1007F00002DA17F1040F04DA012082460FE06D1EC1
:10080000EEE7002F02DCED1B3E4403E0781CA8421B
:1008100000DD7D1CB81B00F1010A4FF00047207875
:10082000000703D4AA4501DB4FF0FF3A0021B7F1DE
:10083000004F0DF143088DF8431024D002202B23E4
:10084000002F01DA7F422D230A21021EA0F10100B0
:1008500000DC5FB197FBF1FC97FBF1F201FB1C7C24
:1008600017460CF1300C08F801CDEEE7A8F10100B5
:1008700003702188090501D5452100E06521A0F11B
:10088000010800F8011C09980FA9A1EB0807FF1D3A
:1008900000B10120411901EBEA70A1693844081A3E
:1008A000401EA0612078C00602D42046FFF7B2FCAB
:1008B000099828B1D4E901219047206A401C2062A0
:1008C0002078C00622D52046FFF7A4FC1EE0002EAB
:1008D00004DBB34502DD01A8805D00E03020D4E9EF
:1008E00001219047206A401C2062761CAAF1010079
:1008F0005FEA000A0AD100F055F8C0680168405C60
:10090000D4E901219047206A401C2062281EA5F1ED
:100910000105DCDC07E0D4E9012118F8010B904760
:10092000206A401C2062381EA7F10107F3DC204634
:10093000FFF786FC032011B041E6000001694A1C64
:1009400002610878704700B58FB0CDE90131002110
:10095000059105497944CDE9031011466846FFF732
:10096000E5FC0FB000BD0000E5FFFFFF0A6802F8DC
:10097000010B0A60704710B5436913B1AFF30080F3
:1009800001E0FFF76EFC012010BD127800F1240198
:100990000A7000224A700122EDE711684FF0FF3221
:1009A000E9E70000004870478C04002030B5B0F142
:1009B0000A024FEA900E71F100034EEA817EB0EB1D
:1009C0000E0061EB91014FEA101E4EEA017E10EB22
:1009D0000E0041EB11114FEA102E4EEA016E10EBA2
:1009E0000E0041EB11214FEA104E4EEA014E10EB82
:1009F0000E0041EB1141401841F100014FEAD000D7
:100A000040EA41704FEAD10110EB80054FEA8104C2
:100A100044EA907444EB01046D1944EB0404521B46
:100A2000A3414FF0000348BF0A3200D530BD401C3F
:100A300041F1000130BD00002DE9F0411F460446A0
:100A400003260168072A01F4006004DB08B116A53B
:100A500005E016A503E008B115A500E015A521F0F5
:100A600010002060A069C01EA0610FB1401EA061EF
:100A70002046FFF7CFFB4FB1D4E90121384690471C
:100A8000206A401C2062C01C206206E0206AFAE74F
:100A9000D4E9012115F8010B9047761EF8D22046C3
:100AA000FFF7CEFBBDE8F0814E414E006E616E0057
:100AB000494E4600696E66002DE9F04781461646AC
:100AC0008AB0354878440DC88DE80D003248784426
:100AD000801C03AC0DC884E80D0041F69B3008442F
:100AE000372190FBF1F290FBF1F5A5F1800501FBB8
:100AF00012041B3C02D56442012000E00020DFF814
:100B000098A080460027FA44AAF1BE0A0EE0E0074A
:100B10000AD03246684607EB470101230AEB810100
:100B200000F046FB8DE8070064107F1C002CEED11E
:100B3000194F7F44AE3F19E0E80715D007EB0410CA
:100B40000DF1180A90E80E008AE80E00C068F04225
:100B500001D1981908903246012306A903A800F094
:100B600027FB03AB83E807006D10641C002DE3D165
:100B70004FF0010332466946B8F1000F03A802D0D6
:100B800000F001FB01E000F013FBC9E90001C9F826
:100B900008200AB0BDE8F08754760000004870478E
:100BA0006C0400207546FFF7F9FFAE460500694664
:100BB000534620F00700854618B020B5FFF704FB28
:100BC000BDE820404FF000064FF000074FF000084E
:100BD0004FF0000B21F00701AC46ACE8C009ACE8CF
:100BE000C009ACE8C009ACE8C0098D46704710B533
:100BF0000446AFF300802046BDE81040FFF7D0BAAE
:100C00004FF0013C50F8042B51F8043B9A4221D19B
:100C1000A2EB0C03934313EACC1317D150F8042B27
:100C200051F8043B9A4215D1A2EB0C03934313EA0B
:100C3000CC130BD150F8042B51F8043B9A4209D144
:100C4000A2EB0C03934313EACC13DBD04FF000006C
:100C5000704700BFD01A01BAB1FA81F101F0180152
:100C600022FA01F0CB40C1F12001DBB2C0B2C01AC0
:100C70002CFA01F3D11A914311EAC311E6D170475E
:100C800001491820ABBEFEE72600020070475FEA6C
:100C9000400C08BF91F0000F4FEA8C234FEAC122AD
:100CA00043EA51514FEA1C5018BF00F5F0404FEA9B
:100CB000300018BF41F000415FEA6C5C00F0298011
:100CC000BCF1FF3F08BF40F080407047130C06BFE7
:100CD00012044FF0100C4FF0000C130E04BF120260
:100CE0000CF1080C130F04BF12010CF1040C930F4C
:100CF00004BF92000CF1020CD30F04BF52000CF1A0
:100D0000010C11464FF00002A0F11F00A0EB0C00F7
:100D1000704711F0004F08BF704731F000413FF4B9
:100D2000D5AF0B0C06BF09044FF0100C4FF0000CB0
:100D30000B0E04BF09020CF1080C0B0F04BF0901D4
:100D40000CF1040C8B0F04BF89000CF1020CCB0FCB
:100D500004BF49000CF1010CCCF12003A0EB0C0006
:100D600022FA03F302FA0CF241EA030100F1010056
:100D7000704720F07F4C80EA030023F07F47ACEB04
:100D8000070303F57C5300F0004003F1FF032DE956
:100D900080494FEA154B09B44FEA144325EA0B4E3C
:100DA00024EA03480FF2042606EB132749083E788D
:100DB0005FEA320203FB0667C7F5000707FB06F68A
:100DC0004FEA54374FEAD64606F1020607FB066C97
:100DD000CCF1005C4FEA1C472CEA074C07FB06F4F9
:100DE0000CFB06F504EB15464FEA961634BF0020BF
:100DF0004FF000404FEAD13706FB07FC4FEA1C4C8E
:100E00000CFB0BF7D21B03FB0CF761EB07010CFB90
:100E10000EF7B0EB074072EB17420CFB08F734BF3C
:100E2000A2EB0742B2EB074261EB17414FEA0C44D9
:100E30004FEA910706FB07FC4FEA1C4C0CFB0BF733
:100E4000B0EBC74072EB573203FB0CF734BFA2EB99
:100E5000C742B2EBC74261EB57310CFB0EF7B0EB68
:100E6000C70072EB57720CFB08F734BFA2EBC70246
:100E7000B2EBC70261EB5771039F4FEA816141EA10
:100E8000921104EBCC044FEAD1374FEA826206FBA1
:100E900007FC42EA90124FEA80604FEA1C4C0CFBC0
:100EA0000BF7D21B03FB0CF761EB07010CFB0EF7F2
:100EB000B0EB074072EB17420CFB08F734BFA2EB14
:100EC0000742B2EB074261EB17414FEA8C554FEAFC
:100ED000910704EB9C2406FB07FC4FEA1C4C0CFB1F
:100EE0000BF7B0EBC74072EB573203FB0CF734BF84
:100EF000A2EBC742B2EBC74261EB57310CFB0EF7D6
:100F0000B0EBC70072EB57720CFB08F734BFA2EBD3
:100F1000C702B2EBC70261EB577115EB4C254FEAE4
:100F2000816141EA92114FEA82624FEAD13742EA87
:100F3000901206FB07FC44F100044FEA80604FEA80
:100F40001C4C0CFB0BF7D21B03FB0CF761EB0701EE
:100F50000CFB0EF7B0EB074072EB17420CFB08F7E7
:100F600034BFA2EB0742B2EB074261EB174115EB2E
:100F70001C154FEA813141EA92414FEA823242EA3E
:100F800090424FEA80304FEA0C7644F1000448EA80
:100F900003434EEA0B484FF0000EB2EB080C71EB26
:100FA000030724BF624639464EEB0E0E4FF0000B8E
:100FB0000018524149414BEB0B0BB2EB080C71EBA3
:100FC00003077BF1000B24BF624639464EEB0E0E41
:100FD0004FF0000B0018524149414BEB0B0BB2EBA9
:100FE000080C71EB03077BF1000B24BF6246394606
:100FF0004EEB0E0E51EA020718BF46F0010616EB43
:101000000E7655F1000254F1000103D5BDE88901C7
:10101000BDE80088BDE88901BDE80048B619524125
:1010200041EB0101A3F10103704780807F7E7D7C4D
:101030007B7A7978777676757473727171706F6E6A
:101040006E6D6C6C6B6A6A69686867666665646415
:10105000636362616160605F5F5E5E5D5D5C5C5B9F
:101060005B5A5A595958585757565655555554540E
:10107000535352525251515050504F4F4F4E4E4D6C
:101080004D4D4C4C4C4B4B4B4A4A4A4949494848B8
:1010900048474747474646464545454444444443F8
:1010A00043434342424242414141002B9C4630D49B
:1010B00077002BD01CB54FEA370703B44FF0100070
:1010C0004FF01001BAF1000F06D0BCF1000FDCBFE9
:1010D00040F0080040F008014FF000000FBCBDE8F0
:1010E00010400BF1010BBBF1010F08BF5FEA1707BE
:1010F00022BF12F1010211F101014FF0004143F151
:10110000000300F0004043EA00007047F9D357089D
:10111000D0E746EA064613F1400F4FEA16461FDDB8
:1011200013F1200FDFBF16430A46002120335B4234
:10113000BED0C3F1200746EA064602FA07F74FEA97
:10114000164646EA0706C3F1200722FA03F201FA1F
:1011500007F721FA03F14FF0000342EA0702A7E77D
:1011600046EA020646EA06464FEA164646EA0106FF
:10117000BCBF46EA0646360C4FF000034FF00002B3
:101180004FF0000194E72DE9804C9A46934670B4E5
:1011900091E8380007C831EA400C48BF34EA430CF4
:1011A00003D5FFF7E6FDFFF780FFF0BCBDE8008C3C
:1011B0002DE9804C9A46934670B491E8380007C8F0
:1011C00010F0804F08BF13F0804F03D100F005F8F6
:1011D000FFF76BFFF0BCBDE8008C20F07F4780EA92
:1011E000030023F07F4C07EB0C03A3F57C5300F0C6
:1011F0000040A3F1FE0392F0000F00F0B38095F0E1
:10120000000F00F077802DE901494FEA11404FEAC5
:10121000144621EA004800FB06FC24EA064708FBC6
:1012200006F607FB08F800FB07F718EB06484CEB3F
:10123000164C4FEA124B18EB07484FEA15464CEB99
:10124000174022EA0B4E0BFB06FC25EA06470EFB75
:1012500006F607FB0EFE0BFB07F71EEB064E4CEBEC
:10126000164C4FF000061EEB074E4CEB174B18EBDD
:101270000B0840F1000018EB0E0B58EB000840F192
:1012800000008F1A4FF000013CBFC943661B14BF1A
:10129000B5EB040C00213CBFC943F61B4FEA1744D1
:1012A0004EEA8E0E27EA04454FEA1C4704FB07620C
:1012B0002CEA074C05FB07F70CFB05F604FB0CFCBE
:1012C00016EB074642EB174216EB0C4642EB1C426C
:1012D0001BEB060658EB0202414146EA9E0601D589
:1012E000BDE80189B619524141EB0101A3F10103A7
:1012F000BDE801894FEA14454FEA114724EA054643
:1013000021EA074C05FB07F406FB07F70CFB06F187
:1013100005FB0CFC11EB074144EB17444FEA124765
:1013200011EB0C4144EB1C4422EA074C05FB07F28D
:1013300006FB07F70CFB06F605FB0CFC16EB074655
:1013400042EB174216EB0C4642EB1C456A1854F16F
:10135000000148BF7047B619524141EB0101A3F1AA
:101360000103704795F0000F37D04FEA11424FEA62
:10137000144721EA024624EA074C02FB07F106FB68
:1013800007F70CFB06F402FB0CFC14EB074441EBE3
:1013900017414FEA154714EB0C4441EB1C4125EA79
:1013A000074C02FB07F506FB07F70CFB06F602FBF2
:1013B0000CFC16EB074645EB174516EB0C4645EBC8
:1013C0001C42121951F1000148BF7047B619524131
:1013D00041EB0101A3F1010370474FEA14454FEAC5
:1013E000114724EA054621EA074C05FB07F106FBF5
:1013F00007F70CFB06F24FF0000605FB0CFC12EBA6
:10140000074241EB174112EB0C4251EB1C4148BF24
:101410007047921841EB0101A3F1010370470000EE
:1014200008B50121084600F0E7FC01214FF40170E6
:1014300000F002FD0F20ADF8000000208DF8030041
:101440006946024800F03DFA08BD0000000801406E
:1014500010B5FFF7E5FF00F001F810BD00B591B041
:101460003F4800F067F93F4806903F48079000204A
:1014700008900420099000200A9080200B904000E2
:101480000C9080000D9020200E9000020F90002004
:10149000109006A9324800F0F3F90121304800F01D
:1014A0003DF90020019001208DF808008DF8090019
:1014B0004FF4602003900020049004208DF8140065
:1014C00001A928484C3800F07BF84FF4404000F068
:1014D00087FC05230122002122484C3800F098F8AF
:1014E0000523022201211F484C3800F091F8052302
:1014F000032202211B484C3800F08AF805230422FD
:10150000032118484C3800F083F8012000F0F2F86D
:10151000012114484C3800F034F8012111484C38AE
:1015200000F024F80F484C3800F0CEF800BF0D480A
:101530004C3800F03BF80028F9D10A484C3800F04C
:10154000D3F800BF07484C3800F026F80028F9D13E
:10155000012104484C3800F0BCF811B000BD000077
:10156000080002404C2401403200002021B1826872
:1015700042F00102826003E0826822F00102826090
:10158000704721B1826842F48072826003E0826811
:1015900022F4807282607047014600208A6802F05F
:1015A00004020AB1012000E000207047014600203B
:1015B0008A6802F008020AB1012000E000207047AA
:1015C00030B502460020002350680F4C20400D79B2
:1015D0000C6844EA05242043506090680B4C20407E
:1015E000D1E902542C434D7944EA450420439060EC
:1015F000D06A20F470000C7C641EE4B2234340EAFD
:101600000350D06230BD0000FFFEF0FFFDF7F1FF98
:10161000F0B504460D4600200021092D11DDE068DB
:10162000A5F10A0606EB4607072606FA07F18843E6
:10163000A5F10A0606EB460603FA06F10843E06048
:101640000CE0206905EB4507072606FA07F18843F9
:1016500005EB450603FA06F108432061072A0FDA75
:10166000606B561E06EB86071F2606FA07F18843B5
:10167000561E06EB860605FA06F10843606322E073
:101680000D2A0FDA206BD61F06EB86071F2606FAF7
:1016900007F18843D61F06EB860605FA06F10843D4
:1016A000206310E0E06AA2F10D0606EB86071F2614
:1016B00006FA07F18843A2F10D0606EB860605FA45
:1016C00006F10843E062F0BD816841F008018160E5
:1016D000704721B1826842F4A002826003E0826810
:1016E00022F4A00282607047816841F004018160A9
:1016F0007047000030B10749096841F40001054A0C
:10170000116005E00349096821F40001014A1160F4
:10171000704700000824014000BFFEE721B10268C5
:1017200042F00102026004E002684FF6FE731A40C4
:101730000260704701684FF6FE721140016000219F
:10174000016041608160C1604B49884208D14A49CB
:101750000839496841F00F01474A083A51608AE068
:1017600045491431884208D143490839496841F054
:10177000F001414A083A51607DE03F4928318842F2
:1017800008D13D490839496841F470613A4A083A3C
:10179000516070E038493C31884208D136490839F7
:1017A000496841F47041344A083A516063E0324973
:1017B0005031884208D130490839496841F47021D4
:1017C0002D4A083A516056E02B496431884208D1CD
:1017D00029490839496841F47001274A083A51609B
:1017E00049E025497831884208D1234908394968B8
:1017F00041F07061204A083A51603CE01F4988423C
:1018000006D1011F096841F00F01021F116032E08B
:101810001A491431884208D11849091F096841F052
:10182000F001164A121F116025E014492831884240
:1018300008D11249091F096841F470610F4A121F4B
:10184000116018E00D493C31884208D10B49091F4D
:10185000096841F47041094A121F11600BE0074901
:101860005031884207D10549091F096841F47021A8
:10187000024A121F1160704708000240080402402B
:1018800010B50022026847F6F0739A430C6A8B6821
:1018900023430C6923434C6923438C692343CC695C
:1018A00023434C6A23438C6A23431A430260CB6868
:1018B00043600B6883604B68C36010BD704770471E
:1018C00070472DE9F0410246002500260020002344
:1018D0000024002791F803C00CF00F0591F803C015
:1018E0000CF0100CBCF1000F03D091F802C04CEAD0
:1018F000050591F800C0BCF1000F31D0146800203C
:101900002BE04FF0010C0CFA00F3B1F800C00CEA28
:1019100003069E4220D183004FF00F0C0CFA03F710
:10192000BC4305FA03FC4CEA040491F803C0BCF183
:10193000280F06D14FF0010C0CFA00FCC2F814C0BD
:101940000AE091F803C0BCF1480F05D14FF0010C3B
:101950000CFA00FCC2F810C0401C0828D1D3146057
:10196000B1F800C0BCF1FF0F34DD546800202EE058
:1019700000F1080C4FF0010808FA0CF3B1F800C0B0
:101980000CEA03069E4221D183004FF00F0C0CFAA3
:1019900003F7BC4305FA03FC4CEA040491F803C0C6
:1019A000BCF1280F05D100F1080C08FA0CF8C2F8B8
:1019B000148091F803C0BCF1480F07D100F1080C66
:1019C0004FF0010808FA0CF8C2F81080401C0828F3
:1019D000CED35460BDE8F081F0B50A460023002460
:1019E0000021002500F00046B6F1004F02D11D4E47
:1019F000F16901E01B4E7168C0F3034583B200F446
:101A00004016B6F5401F08D121F07061154E76687A
:101A100026F07066134F7E6012E000F48016B6F573
:101A2000801F06D1032606FA05F4A14341F0706138
:101A300006E0460D360103FA06F6B14341F0706147
:101A400022B1460D360103FA06F6314300F0004696
:101A5000B6F1004F02D1034EF16101E0014E716019
:101A6000F0BD0000000001400246002093680B40DA
:101A70000BB1012000E00020704741617047016117
:101A80007047000008B50121042000F0D5F91020AE
:101A90008DF8030001208DF802002020ADF8000031
:101AA00069460448FFF70DFF20210248FFF7E5FFD4
:101AB00008BD00000008014000BFFEE74AF6AA206A
:101AC00001490860704700000030004045F255525F
:101AD000054B1A601A46506091604AF6AA221A60B5
:101AE0004CF6CC421A6070470030004008B5012126
:101AF000082000F0A1F948208DF8030001208DF89E
:101B00000200ADF8000069460E48FFF7DAFE012139
:101B10000C48FFF7B4FF0121042000F08DF94820A4
:101B20008DF8030001208DF802008020ADF8000040
:101B300069460548FFF7C5FE80210348FFF79FFF70
:101B400008BD0000000C01400008014070B5802174
:101B50004248FFF789FF65F35F00C5B201214048A5
:101B6000FFF782FF65F35F00C5B2E843C5B23D49A8
:101B7000097805EA01003B4A127885EA02013A4AEF
:101B80001278114040EA01063748007826EA000042
:101B90003649087034480078B043354908703148F8
:101BA000057031480670002455E00120A0403049FE
:101BB0000978084060B12F4830F81400642807DA2B
:101BC0000120A0402C49097808432B49087006E001
:101BD0000120A04028490978814327480170254801
:101BE00030F81400642807D10120A0402349097867
:101BF00008432249087006E00120A0401F490978E7
:101C000081431E4801701B4830F81400642807DD2A
:101C10000120A0401A49097808431949087006E0D4
:101C20000120A04016490978814315480170012020
:101C3000A0400D490978084038B10E4830F814002A
:101C4000401C0C4921F8140003E00020094921F848
:101C50001400601CC4B2022CA7DB70BD0008014058
:101C6000000C0140240000201C0000201A0000206D
:101C70001B000020200000201D0000201E0000206E
:101C80001F00002008B50121042000F0D5F8102025
:101C90008DF8030003208DF802000002ADF800006B
:101CA00069461048FFF70DFE4FF440710D48FFF7ED
:101CB000E4FE0121082000F0BFF810208DF8030099
:101CC00003208DF802004FF4D840ADF800006946BB
:101CD0000548FFF7F6FD4FF4D8410348FFF7CDFE66
:101CE00008BD000000080140000C014008B50121BA
:101CF000082000F0A1F810208DF8030002208DF8D4
:101D0000020049F20200ADF8000069461348FFF7EF
:101D1000D8FD49F202011148FFF7B1FE0121084642
:101D200000F08AF801210E48FFF756FE0121042039
:101D300000F082F802208DF8020010208DF80300D8
:101D40004FF41C40ADF8000069460648FFF7B9FDA6
:101D50004FF41C410348FFF792FE08BD000C014000
:101D6000000230000008014000BFFEE7704700009D
:101D700008B50121082000F05FF848208DF8030025
:101D800001208DF802000002ADF800006946044809
:101D9000FFF797FD4FF480710148FFF770FE08BD13
:101DA000000C014008B50121102000F045F810207A
:101DB0008DF8030001208DF802004FF44040ADF88B
:101DC000000069460448FFF77CFD4FF4404102489B
:101DD000FFF753FE08BD00000010014070470000EF
:101DE00001460020034A506820F4404008435060F8
:101DF000704700000010024029B1064A52690243B0
:101E0000044B5A6104E0034A52698243014B5A6110
:101E1000704700000010024029B1064AD26902430F
:101E2000044BDA6104E0034AD2698243014BDA6170
:101E3000704700000010024029B1064A926902432F
:101E4000044B9A6104E0034A92698243014B9A6110
:101E500070470000001002407047000010B50446B3
:101E6000002345F6FF7000F05FF80346C3B90D4844
:101E7000006940F002000B490861084644610069AE
:101E800040F04000086145F6FF7000F04DF8034651
:101E9000012B05D00348006920F0020001490861C8
:101EA000184610BD002002400948C16801F0010039
:101EB00008B10120704701F0040008B10220F9E7E1
:101EC00001F0100008B10320F4E70020F2E7000061
:101ED000002002400348006940F080000149086189
:101EE000704700000020024030B503460C461546FE
:101EF000002207E0184600F008F824F812009B1CA6
:101F0000501C82B2AA42F5DB30BD014608887047FA
:101F10000248034948600348486070472301674509
:101F200000200240AB89EFCD00B5024600BFFFF7AD
:101F3000BBFF012800D003E0511E8AB2002AF6D16F
:101F400000BF02B9FF2000BD2DE9F04F80468A4650
:101F50001746B8F1006F02D33348804501D3BDE87E
:101F6000F08FFFF7D5FFA8F1006B4FEA9B25CBF36D
:101F70004809C9F50074A74200DC3C464DE04FF02B
:101F8000006101EB85208A142849FFF7ADFF002688
:101F90000BE009EB0600254931F810004FF6FF7100
:101FA000884200D003E0701C86B2A642F1DB00BF7D
:101FB000A6421BDA4FF0006101EB8520FFF74EFFD0
:101FC000002608E03AF8160006EB0901174A22F845
:101FD0001100701C86B2A642F4DB4FF0006101EBE9
:101FE00085208A14114900F043F804E02246514646
:101FF000404600F03DF8A74200D10FE06D1C4FF0C5
:1020000000090AEB440AA044381B87B2B7F5007FE9
:1020100002DD4FF4007400E03C46B0E700BFFFF77C
:1020200059FF00BF9BE70000000002086C00002081
:1020300030B504460D46FF20FFF776FF034693B9FF
:102040000A48006940F00100084908612580FF2026
:10205000FFF76AFF0346012B05D00448006920F012
:10206000010002490861184630BD0000002002400E
:10207000F0B505460E461746002407E036F8141062
:102080002846FFF7D5FFAD1C601C84B2BC42F5DBCF
:10209000F0BD704708B501210820FFF7CDFE4820AC
:1020A0008DF8030001208DF80200DC20ADF800005F
:1020B00069460448FFF705FCDC210248FFF7DFFC16
:1020C00008BD0000000C014010B500F001F810BD83
:1020D0000CB50020019000902548006840F4803045
:1020E0002349086000BF2248006800F400300090D7
:1020F0000198401C0190009818B90198B0F5A06FA4
:10210000F1D11B48006800F4003010B101200090AC
:1021100001E0002000900098012828D115480068AF
:1021200040F01000134908600846006820F00300E2
:1021300008600846006808600D4840680C4948601F
:10214000084640684860084640684860084640685D
:1021500020F0030048600846406840F001004860F5
:1021600000BF0348406800F00C000428F9D10CBD02
:10217000001002400020024010B500F03DF810BDF4
:1021800030B51A4800684FF47A72B0FBF2F1B1F141
:10219000807F01D301201DE021F07F40401E4FF0E1
:1021A000E022506150170F22002807DA13071D0E96
:1021B0000F4B00F00F04241F1D5503E013071C0EE6
:1021C0000C4B1C5400BF00204FF0E0229061072010
:1021D0001061002008B100BFFEE74FF0E020006969
:1021E00040F001004FF0E021086130BD44000020C4
:1021F00018ED00E000E400E010B501202B49087064
:102200002B4800880A2805DA29480088401C2849FC
:10221000088005E000202649088001202549087033
:1022200025480088142805DA23480088401C2249E4
:10223000088007E000202049088001201F4908701D
:10224000FFF784FC1E480088322805DA1C48008805
:10225000401C1B49088005E0002019490880012026
:102260001849087018480088B0F57A7F05DA1648D2
:102270000088401C1449088005E0002012490880AD
:102280000120124908701248008840F2DC5188424F
:1022900005DA0F480088401C0D49088005E0002041
:1022A0000B49088001200B49087010BD0D0000206B
:1022B000280000200E0000202A0000200F0000202F
:1022C0002C000020100000202E0000201100002013
:1022D000300000201200002010B51348006840F0C4
:1022E00001001149086008464068104908400E493D
:1022F0004860084600680E4908400B4908600846D7
:10230000006820F4802008600846406820F4FE0041
:1023100048604FF41F008860FFF7D6FE4FF0006062
:102320000449086010BD0000001002400000FFF8E2
:10233000FFFFF6FE08ED00E008B501210420FFF7DD
:102340006BFD01210820FFF777FD4FF40070ADF819
:10235000000018208DF8030003208DF80200694664
:102360000148FFF7AEFA08BD000C014070470000BD
:1023700010B588B000249620ADF818000020ADF804
:102380001400ADF81A00ADF8160005A90F4800F0CA
:102390008BF86020ADF804000120ADF80600ADF820
:1023A0000A400020ADF80C0001A9084800F02EF802
:1023B0000821064800F068F80121044800F00EF8F2
:1023C0000121024800F016F808B010BD00080040D6
:1023D00010B5FFF7B1FFFFF7CBFF10BD21B10288A9
:1023E00042F08002028004E002884FF67F731A40B8
:1023F0000280704721B1028842F00102028004E0AD
:1024000002884FF6FE731A400280704770B50022B2
:1024100000230024058C4EF6FF7635400584038C9E
:102420008488828B48F6FF752A404FF6FF452A4084
:102430000D884FF6FF7606EA05252A434DF6FF750F
:102440002B400D8906EA05352B434D8806EA0535F4
:102450002B430B4DA84202D00A4DA84208D14BF69F
:10246000FF752C408D894FF6FF7606EA85152C43C3
:1024700084808283CD88A0F84050038470BD000022
:10248000002C0140003401400A460021818B4FF2AC
:10249000FF7319404FF6FF7303EA02231943818348
:1024A0007047A0F840107047002202881D4B9842E8
:1024B0000ED01D4B98420BD0B0F1804F08D01B4B73
:1024C000984205D01A4B984202D01A4B984204D138
:1024D0004FF68F731A404B881A43174B984207D018
:1024E000164B984204D04FF6FF431A40CB881A434C
:1024F00002808B8883850B8803850A4B98420BD01A
:10250000094B984208D00E4B984205D00D4B98428B
:1025100002D00D4B984201D10B7A038601238382AE
:1025200070470000002C01400034014000040040CE
:1025300000080040000C0040001000400014004063
:10254000004001400044014000480140704700BF86
:10255000FEE7490050EAC12018BF04204A0D18BF09
:1025600040F0010040F2FF72B2EB515F08BF40F053
:102570000200012808BF0520704730380A2801D220
:10258000012070470020704710B5002027490870CF
:102590002748008818B126480088042805DD012056
:1025A00023490880FF2021490870214840883A28A3
:1025B00002DD1D201E4948801D488088B0F5C87F77
:1025C00003DC1B488088282805DA9E20184988806B
:1025D000FF20164908701648C088B0F57A6F05DCF0
:1025E0001348C08840F6B831884206DA40F6AC504D
:1025F0000F49C880FF200D4908700D4800897828D0
:1026000003DC0B48C0880A2805DA3C200849C8804A
:10261000FF200649087005480078FF2804D10A22E7
:1026200003490448FFF790FC10BD000002000020A1
:102630005800002000F0010870B500240FE0611C74
:10264000C8B2012100F0E8FA002504E0002000F003
:102650009BFE681CC5B2842DF8DB601CC4B2092C3B
:10266000EDDB70BD002105E0002200E0521C6E2A67
:10267000FCDB491C8142F7DB70470EE0002107E0DC
:10268000002201E0531C9AB20A2AFBDB4B1C99B2D0
:10269000B1F5FA7FF4DB431E98B20028EED1704703
:1026A00070B504463A2C00DD3A2400250AE005F115
:1026B0004100C1B2012000F0AFFA012000F064FE39
:1026C000681CC5B23E2DF2DB04F14300C1B201200B
:1026D00000F0A2FA712000F057FE04F14200C1B2EE
:1026E000012000F099FA312000F04EFE04F1440080
:1026F000C1B2012000F090FA312000F045FE04F153
:102700004100C1B2012000F087FA112000F03CFE28
:1027100004F14500C1B2012000F07EFA112000F062
:1027200033FE70BD70B505463A2D00DD3A25002414
:1027300010E004F14300C1B2022000F06DFAAC4297
:1027400003DA7F2000F020FE02E0412000F01CFEB2
:10275000601CC4B23A2CECDB70BD000010B504461E
:10276000082C6CD2DFE804F0040F1A25303B4B5BD9
:10277000344A0121084600F02FF933A20121082034
:1027800000F048F95BE0374A0121084600F024F9DF
:1027900035A20121082000F03DF950E0394A01211D
:1027A000084600F019F938A20121082000F032F99A
:1027B00045E03C4A0121084600F00EF93AA2012109
:1027C000082000F027F93AE03E4A0121084600F0CF
:1027D00003F93DA20121082000F01CF92FE0194A5D
:1027E0000121084600F0F8F83EA20121082000F07F
:1027F00047F93DA20221082000F042F91FE0114AEA
:102800000121084600F0E8F836A20121082000F076
:1028100037F93BA20221082000F032F90FE0094A03
:102820000121084600F0D8F82EA20121082000F06E
:1028300027F939A20221082000F022F900BF00BFC9
:10284000FF2010BDEF77000820202020202020202E
:102850002020202020202020202020202020202078
:1028600000000000A87900085455524E204F4646FB
:10287000204F5554202020202020202020202020C0
:1028800000000000617B0008414C4C2D4441592060
:102890004F555420574F524B2020202020202020DD
:1028A000000000001A7D00084E49474854204F554B
:1028B0005420574F524B2020202020202020202021
:1028C00000000000D37E0008444159204F55542099
:1028D000574F524B20202020202020202020202035
:1028E0000000000021000000534554204C49474897
:1028F000542044415441202020202020202000004A
:1029000053455420494E50555420564F4C5441473E
:102910004520202020200000534554204F555420AE
:10292000564F4C54414745202020202020200000B5
:1029300070B586B00446204600F078FD05462A466C
:102940000B4608A16846FDF751FC6A4607A1684698
:10295000FDF74CFC6A464A21062000F0C9F806B093
:1029600070BD0000252D2E31665600002535730000
:1029700010B586B00446224605A16846FDF736FC30
:102980006A464621032000F045F806B010BD00005D
:102990004C494748543A252D336400002DE9F04155
:1029A00005460E461446002712E0F1B22A466D1C79
:1029B000D0B200F031F94FF0000805E0207800F0C7
:1029C000E3FC641C08F10108B8F1800FF6DB7F1C02
:1029D000082FEADBBDE8F0812DE9F04105460E46FF
:1029E0001446002712E0F1B22A466D1CD0B200F066
:1029F00013F94FF0000805E0207800F0C5FC641CD6
:102A000008F10108B8F13F0FF6DB7F1C072FEADB66
:102A1000BDE8F0812DE9F04780460E4615460024BA
:102A20004FF480611448FFF728F820E0285D202843
:102A30001CDB285D7E2819DA285DA0F12009F1B29F
:102A400008F0FF0000F0E8F8002707E009EB890133
:102A50000A4A1144C85D00F097FC7F1C052FF5D38E
:102A6000002000F091FC641CB61D00E0641C285D91
:102A70000028DBDCBDE8F087000C0140146E000884
:102A80002DE9F04780460E46154600244FF480613C
:102A90001548FEF7F2FF21E0285D20281DDB285DA8
:102AA0007E281ADA285DA0F12009F1B208F0FF00B3
:102AB00000F0B2F8002708E009EB89010B4A114445
:102AC000C95DC84300F060FC7F1C052FF4D3FF20D4
:102AD00000F05AFC641CB61D00E0641C285D002850
:102AE000DADCBDE8F0870000000C0140146E00083D
:102AF0002DE9F04782468846164600244FF480614F
:102B00001E48FEF7BAFF34E0305D202830DB305D30
:102B10007E282DDC305DA0F12009002522E008F0A0
:102B2000FF010AEB0502D0B200F076F8002716E0AC
:102B30004DB9134901EB0911082202FB0572885CAB
:102B400000F022FC0AE00E4901EB0911082202FB09
:102B50000572895C41F0400000F016FC7F1C082FD4
:102B6000E6D36D1C022DDAD3641C08F1080800E0DE
:102B7000641C305D0028C7DCBDE8F087000C014014
:102B8000C85A000810B54FF480612248FEF775FF5F
:102B90004FF400611F48FEF770FF4FF4FA70FFF723
:102BA00061FD4FF400611B48FEF769FFC820FFF785
:102BB00059FDE22000F0B2FB3220FFF753FD2C203C
:102BC00000F0ACFB3220FFF74DFD2E2000F0A6FBFD
:102BD0003220FFF747FD2F2000F0A0FB3220FFF747
:102BE00041FD232000F09AFB812000F097FB282074
:102BF00000F094FBA22000F091FBC82000F08EFBB7
:102C0000A02000F08BFB402000F088FBAF2000F0FC
:102C100085FB10BD000C014070B505460C46601EDA
:102C2000C4B2681EC5B205F1B00000F077FB1021F8
:102C300001EB141000F072FB04F00F0000F06EFBCB
:102C400070BD0000FFF79CFAFFF750F8FFF722FA7B
:102C5000FEF74CFFFEF7FCFBFFF7BAFBFFF7A2F80D
:102C6000FFF786F8FEF70EFFFFF70CF80A22FB4984
:102C7000FB48FFF739F9FFF787FCFA48006820F4B2
:102C80000040F8490860F848C06840F48040F649C0
:102C9000C8600846C06840F48040C8600021F3481E
:102CA000FFF7FFFB0020F2490870EE48006840F093
:102CB0002000EC4908600A20FFF7DFFCE9480068C3
:102CC00020F02000E74908600846006840F4004012
:102CD000086000F00DFBE1490878FFF73FFD40F286
:102CE00071210420FEF7F2FEF0E2FEF7E7FEE14874
:102CF000007800284BD00020DE490870DE480088AC
:102D0000D649C98888422BDDD648006820F40040A7
:102D1000D4490860D448C06840F48040D249C860B3
:102D20000846C06840F48040C8600021CF48FFF7E3
:102D3000B8FB0020CE490870CA48006840F0200067
:102D4000C84908600A20FFF798FCC648006820F0D0
:102D50002000C44908600846006840F4004008604C
:102D6000BE48008808280DD2DFE800F004050607F9
:102D700008090A0B0AE009E008E007E006E005E0C0
:102D800004E003E00120B549088000BF00BFBB4854
:102D9000007800284ED00020B8490870B848006874
:102DA00080F00200B6490860AC48008958B1AB48D1
:102DB0000089401EA94908814FF40071A9480C38C8
:102DC000FEF75DFE05E04FF40071A6480C38FEF7F3
:102DD00054FEA94989883A2201FB02F0C11700EB91
:102DE0005151C912A74A1180104600883A2802DDC5
:102DF0003A2011460880A3490878FFF7B9FDA14998
:102E00000878FFF78FFC95498878FFF749FC9348CD
:102E100040889C490988884206DA9948006820F46D
:102E200080509749086005E09548006840F480505C
:102E3000934908609448007800287DD0002092498A
:102E400008708649888800F0DFFB04468A49C888F4
:102E500000F0DAFB0546214600F014FB8B490860C0
:102E600008460068FFF764FD81480078012824D1F6
:102E70007D48C06840F480407B49C8600846C0680F
:102E800040F40040C86000217848FFF70AFB0020AA
:102E9000774908700A20FFF7F0FB7248006840F09D
:102EA0002000704908600A20FFF7E7FB6D480068C2
:102EB00020F020006B4908601EE06D480078D8B90A
:102EC0006D480088642814DD6648006840F02000E2
:102ED000644908600A20FFF7D0FB6748008864282F
:102EE00003DD01206A49087006E000206849087087
:102EF00002E000206649087058480088082870D20F
:102F0000DFE800F00405061E3A5657586DE06CE005
:102F10005F48007898B95448C06820F4804052490E
:102F2000C8600846C06820F40040C8604A214F4885
:102F3000FFF7B7FA012000E058E04D49087054E06F
:102F400053480078B8B9454840884E4909888842B6
:102F500011DB4548C06820F480404349C8600846FA
:102F6000C06820F40040C8604A214048FFF799FA41
:102F700001203F49087038E045480078B8B9374823
:102F8000408840490988884211DA3748C06820F4EF
:102F900080403549C8600846C06820F40040C860D9
:102FA0004A213248FFF77DFA0120314908701CE0C0
:102FB0001BE01AE03648007888B92B48C06820F436
:102FC00080402949C8600846C06820F40040C860B5
:102FD0004A212648FFF765FA01202549087004E0D8
:102FE000FFE701201D49088000BF00BF2948007885
:102FF000002879D000202749087018480088042844
:1030000006DD1F48006820F400401D49086005E007
:103010001B48006840F40040194908601E480078C9
:1030200000F00100C8B10D480088052803D00B4806
:103030000088072832D109480088052804D10748AC
:103040004088401E054948800A2204490448FEF78A
:103050007BFF01200149088023E026E05800002082
:1030600000F001080C080140001001400008004079
:10307000030000200D00002032000020110000207D
:103080000C0C01400000002012000020080000206D
:10309000040000200F0000201E00002005208C49A5
:1030A00008808B490878FFF759FB8A48007800F0C0
:1030B000020008B386480088062803D084480088A8
:1030C000072812D182480088062804D180488088C9
:1030D000401C7F4988800A227D497F48FEF734FFE3
:1030E00001207B49088003E0F0E006207849088051
:1030F00077490878FFF732FB78480078032805D134
:103100000720734908800878FFF728FB7448007887
:1031100000F0010000286CD03C206D490881714806
:10312000006820F480606F490860694800880828BA
:1031300050D2DFE800F0040506070819274400BF55
:1031400000BF00BF00BF62480088401C6049088083
:1031500008460088052801DB012008800A225C4916
:103160005D48FEF7F1FE39E0594840883A2804DA14
:1031700057484088401C5649488055498878FFF791
:103180008FFA2BE052488088FE2804DA5048808865
:10319000401C4F4988804E49888800F035FA044623
:1031A0005149C88800F030FA0546214600F06AF916
:1031B0004E49086008460068FFF7BAFB0EE0444835
:1031C000C088B0F57A6F04DA4148C0880A304049B7
:1031D000C88003E001203E49088000BF00BF3C4991
:1031E0000878FFF7BBFA3F48006840F480603D492B
:1031F00008603B48007800F00200002866D03C20C0
:10320000334908813748006820F400603549086078
:103210002F48008808284AD2DFE800F00405060796
:103220000813213E00BF00BF00BF00BF2848008830
:10323000401E274908800846008808B904200880F5
:1032400039E023484088002804DD21484088401E9A
:103250001F4948801E498878FFF722FA2BE01C4856
:1032600080880A2804DD1A488088401E1849888012
:103270001749888800F0C8F904461B49C88800F03F
:10328000C3F90546214600F0FDF8184908600846D4
:103290000068FFF74DFB0EE00D48C088B0F57A6F6F
:1032A00004DD0B48C0880A380949C88003E00120C2
:1032B0000749088000BF00BF05490878FFF74EFAAC
:1032C0000848006840F40060064908600DE5000009
:1032D000580000201E00002000F001081F00002000
:1032E0001A0000200C0801403200002008000020D5
:1032F00010B5FFF747FCFFF79FF9054A0121084683
:10330000FFF74CFB03A250210520FFF783FB10BD04
:10331000EF6F0008504F57455200000070B504464B
:103320004FF480611648FEF7A8FB4FF40051144893
:10333000FEF7A3FB00251AE04FF480711148FEF759
:103340009CFB04F0800028B14FF480410C48FEF74C
:1033500096FB04E04FF480410948FEF78EFB4FF4E2
:1033600080710848FEF78BFB6400681CC5B2082D0D
:10337000E2DB4FF480610248FEF781FB70BD000084
:10338000000C01400008014070B504464FF4806114
:103390001648FEF772FB4FF400511448FEF76FFB1E
:1033A00000251AE04FF480711148FEF766FB04F027
:1033B000800028B14FF480410C48FEF760FB04E028
:1033C0004FF480410948FEF758FB4FF480710848DC
:1033D000FEF755FB6400681CC5B2082DE2DB4FF414
:1033E00080610248FEF74BFB70BD0000000C0140FD
:1033F0000008014010B500290AD00878002807D03D
:1034000005487844FDF7FCFB002801D0002010BDE2
:103410000248784410BD0000524D00004A4D0000A3
:103420000808A0F500114FEA3101704743004FEA48
:10343000D30C4FEA3C0C43401FBF40070CF16051D6
:1034400013F0FE4F70471CF0006F03D100200CF00A
:10345000004170470CF0004343EA507010B540EA59
:10346000CC0000F0E4F800BF000000924FEA000139
:10347000FFF7D6BF4FF000414FF00000A1F500214B
:10348000704700004FF47F0C1CEAD0121EBF1CEAEC
:10349000D11392EA0C0F93EA0C0F00F0858090EAAA
:1034A000010F48BF42F4807240F4000C41F4000068
:1034B0002CF07F4120F07F4000B58142A2EB030257
:1034C0000FF2081CACEB504EC0F100009EF800E07B
:1034D0004FEA4E0E00FB0EFC38BF49004FEA2C1C91
:1034E00002F5FA020CFB0EF34FEACE1E4FEA112C46
:1034F0004FEAC1210EEB635E42EB22420EFB0CFC55
:103500004FEA1C5300FB03114FEA112C4FEA013123
:103510000EFB0CFC4FEADC4C00FB0C11C14228BF37
:1035200009184CEB03335DF804EB10EB410143EB5E
:10353000C250B2F57C0F38BF704729D512F0F00F9A
:103540001CBF00F1C04000F0004070470081828342
:103550008485868788898B8C8D8E8F9192939596A2
:1035600097999A9C9D9FA0A2A3A5A7A8AAACAEB02C
:10357000B2B3B5B7B9BCBEC0C2C5C7C9CCCED1D431
:10358000D7D9DCDFE2E6E9ECF0F3F7FAFE00000061
:103590004FEA400C0CF1807CBCF17E4F28BF704795
:1035A000B0F1C04000F089B890EA010F0CEAD113E5
:1035B00048BF42F48072624538BF634507D213F4B6
:1035C0007F0F16D080EA010000F00040704710B570
:1035D00000F02DF8097EFC3E00F005B880EA0100FD
:1035E00000F00040704780EA010000F0004000F069
:1035F00064B812F47F0F04BF0248704780EA0100EC
:1036000000F05BB80000C07FB0FA80F310FA03F25C
:10361000C3F19D030AD0D90501EB1220530638BF30
:10362000704700F1010008BF20F0010070470EF163
:10363000020E2EF0030E5EF8044B244204D44FEA2F
:103640004102B2F17F4F11D84FEA4003B3F17F4FEF
:103650000CD80ED14FEAD07CB2F17F4F0CEB4C0C62
:103660000CF1020C08BF4CEBD17C04E04FF0080CCD
:1036700001E04FEAD17C0CEB4C0324FA03F404F094
:103680000704B4F1040C06D20EEB840CBDE8104024
:103690004CF0010C6047DFE80CF0070802024FF025
:1036A0000040A0F5800010BD0846420018BFD2F1CE
:1036B000807288BF00F0004010BDFF2141EAD05069
:1036C000C0057047FDF703B80000000000000000CF
:1036D00000000000000000000000000000000000EA
:1036E00000000000000000000000000000000000DA
:1036F00000000000000000000000000000000000CA
:1037000000000000000000000000000000000000B9
:1037100000000000000000000000000000000000A9
:103720000000000000000000000000000000000099
:103730000000000000000000000000000000000089
:103740000000000000000000000000000000000079
:103750000000000000000000000000000000000069
:103760000000000000000000000000000000000059
:1037700000000000C0201010C84848C8181020C021
:103780000000000000000000000000000000000039
:103790000000000000000000000000000000000029
:1037A0000000000000000000000000000000000019
:1037B0000000000000000000000000000000000009
:1037C00000000000000000000000000000000000F9
:1037D00000000000000000000000000000000000E9
:1037E00000000000000000000000000000000000D9
:1037F00000000000000000000000000000000000C9
:1038000000000000000000000000000000000000B8
:1038100000000000000000000000000000000000A8
:103820000000000000000000000000000000000098
:103830000000000F304080803F04041EA180403013
:103840000F00000000000000000000000000000069
:103850000000000000000000000000000000002048
:103860002060E0E0E0E0E0E0E0E0E0606060606018
:1038700060606060E0E0E0E0E0E0C0C0C080800048
:1038800000000000000000000000008080C0C0C0F8
:10389000E0E0E0606060606060E0E0E0C0C0C0C0A8
:1038A00080800000000000000000000000002020D8
:1038B00060E0E0E0E0E0E0E0E0E0C0800000000088
:1038C0000000000000202060E0E0E0E0E060202058
:1038D00000000000E0E0E0E0E0E0E06060606060E8
:1038E000E0E0E0E0E0E0E0E0E06060606060E0E058
:1038F000E0E0E0E0E0000000010101010100000063
:1039000000000000000000000000000000000000B7
:1039100000000000000000000000000000000000A7
:103920000000FFFFFFFFFFFFFFFFFF0000000000A0
:103930000000008080C0E1FFFFFFFF7F7F3F1F0F7F
:103940000000000000C0F8FCFEFFFFFFFFFF0F03B8
:10395000010000000000000000000001031FFFFF45
:10396000FFFFFFFFFEF8E000000000000000000085
:1039700000FFFFFFFFFF0F1F3F7FFFFFFFFEFCF079
:10398000E0C0800000000000FFFFFFFFFF0000001C
:103990000000000007070707030000000000000008
:1039A000FFFFFFFFFFFFFFFFFF0000000000000020
:1039B00003070707070000000000000000000000E8
:1039C00000000000000000000000000000000000F7
:1039D00000000000000000000000000000000000E7
:1039E0000000FFFFFFFFFFFFFFFFFF0303030303D1
:1039F0000303030307070FFFFEFEFEFEFCFCF8F0C7
:103A000000000000001F7FFFFFFFFFFFFFFFE0003F
:103A100000000000000000000000000000C0FFFFE8
:103A2000FFFFFFFFFF7F0F0000000000000000000D
:103A300000FFFFFFFFFF000000000003070F1F3F14
:103A40007FFFFFFFFEF8F0E0FFFFFFFFFF00000039
:103A50000000000000000000000000000000000066
:103A6000FFFFFFFFFFFFFFFFFF000000000000005F
:103A70000000000000000000000000000000000046
:103A80000000000000000000000000000000000036
:103A90000000000000000000000000000000001016
:103AA00010181F1F1F1F1F1F1F1F1F18181818185F
:103AB000181818181C1C1E1F0F0F0F0F07070300E4
:103AC0000000000000000001030307070F0F0F1F95
:103AD0001E1C1C1818181818181C1C1E0F0F0F0776
:103AE00007070301000000000000000000001010A4
:103AF000181F1F1F1F1F18101000000000000000DB
:103B0000000003070F1F1F1F1F1F1F1F1F000000A4
:103B1000000000000000000000000000001010186D
:103B20001F1F1F1F1F1F1F1F1F1810100000000046
:103B30000000000000000000000000000000FEFE89
:103B40000000000000000000000000000000000075
:103B50000000000000000000000000000000000065
:103B60000000000000000000000000000000000055
:103B70000000000000000000000000000000000045
:103B80000000000000000000000000000000000035
:103B90000000000000000000000000000000000025
:103BA0000000000000000000000000000000000015
:103BB0000000000000000000000000000000000005
:103BC00000000000000000000000000000000000F5
:103BD00000000000000000000000000000000000E5
:103BE00000000000000000000000000000000000D5
:103BF0000000000000000000000000000000FFFFC7
:103C000000000000000000000000000000000000B4
:103C100000000000000000000000000000000000A4
:103C2000000000000000000001FF11111129E60052
:103C300000F0080818F00008F8100808F80000085C
:103C4000FE0808080000070101FF01010700F05805
:103C500048487000F01808081801FF100808F8001C
:103C60000008F8100808F8000000F0080818F00034
:103C700001FF0000F0080818F00000007088888834
:103C80007808000008FB000000F058484870000069
:103C9000304848980000000000FC02010121E720A4
:103CA0000008F8100808F8100808F801FF100808C4
:103CB00018F0000001FF11101011FF010000FFFFBC
:103CC00000000000000000000000000000000000F4
:103CD0000000000000000080808080808080808064
:103CE00080808080808080808283828282838180C5
:103CF00080818382828180828382808283828080AD
:103D000081828281808080808283828080808183A2
:103D10008282818081828282818283828082838288
:103D2000808283828082838280808183828281807C
:103D30008283828081838282818080808F9292922E
:103D4000928E808082838280808183828281808043
:103D50008382828180808080808081828282838051
:103D60008082838280828382808283828382828235
:103D70008381808082838280808283828080FF7FB3
:103D80000000000000000000000000000000000033
:103D9000000000000000000101010101010101011A
:103DA0000101010101010101010101010101010103
:103DB00001010101010101010101010101010101F3
:103DC00001010101010101010101010101010101E3
:103DD00001010101010101010101010101010101D3
:103DE00001010101010101010101010101010101C3
:103DF00001010101010101010101010101010101B3
:103E000001010101010101010101010101010101A2
:103E10000101010101010101010101010101010192
:103E20000101010101010101010101010101010182
:103E30000101010101010101010101010101010073
:103E40000000000000000000000000000000000072
:103E50000000000000000000000000000000000062
:103E60000000000000000000000000000000000052
:103E70000000000000000000000000000000000042
:1041A000000000000000000000008080808080800F
:1041B00080808000000000000000800000000000FF
:1041C00000000000000000000000000000000000EF
:1041D00000000000000000000000000000000000DF
:1041E00000000000000000000000000000000000CF
:1041F00000000000000000000000000000000000BF
:1042000000000000000000000000000000000000AE
:10421000000000000000000000000000000000009E
:10422000000000000000000000000000000000008E
:1042300000000000000000000000FF3F0F07070320
:1042400003030303FFFFFFFFFFFFFFFFFFFF030366
:1042500003030307070F3FFF00000000000000C03A
:10426000E0F0F8FCFCFEFEFF7F1F0F0703010101D9
:104270000101010303070E1E3EFFFF0000000000C6
:10428000000001010307FFFFFFFFFFFFFFFFFFFF2C
:104290000703010100000000000000000000000012
:1042A000000000000000000000000000000000000E
:1042B00000000000000000000000000000000000FE
:1042C00000000000000000000000000000000000EE
:1042D00000000000000000000000000000000000DE
:1042E00000000000000000000000000000000000CE
:1042F00000000000000000000000000000000000BE
:1043000000000000FFFFFFFFFFFFFFFFFFFF0000B7
:1043100000000000000000000000000000F8FFFFA7
:10432000FFFFFFFFFFFFFF03000000000000000091
:104330000000000000000000000107000000000075
:10434000000000000000FFFFFFFFFFFFFFFFFFFF77
:10435000000000000000000000000000000000005D
:10436000000000000000000000000000000000004D
:10437000000000000000000000000000000000003D
:10438000000000000000000000000000000000002D
:10439000000000000000000000000000000000001D
:1043A000000000000000000000000000000000000D
:1043B00000000000000000000000000000000000FD
:1043C00000000000FFFFFFFFFFFFFFFFFFFF0000F7
:1043D000000000000000000000000000000FFFFFD0
:1043E000FFFFFFFFFFFFFF8000000000000004044C
:1043F0000C0CFCFCFCFCFCFCFCFCFCFC1C0C04049D
:10440000000000000000FFFFFFFFFFFFFFFFFFFFB6
:10441000000000000000000000000000000000009C
:10442000000000000000000000000000000000008C
:10443000000000000000000000000000000000007C
:10444000000000000000000000000000000000006C
:10445000000000000000000000000000000000005C
:10446000000000000000000000000000000000004C
:10447000000000000000000000000000000000003C
:10448000000080C0FFFFFFFFFFFFFFFFFFFFC080B6
:10449000000000000000000000000000000000011B
:1044A000070F1F3F3F7F7FFFFCF0E0C080808080D0
:1044B00080C0FFFFFFFFFFFF7F7F7F3F0000000006
:1044C0000000000080C0FFFFFFFFFFFFFFFFFFFFB6
:1044D000C08000000000000000000000000000009C
:1044E00000000000000000000000000000000000CC
:1044F00000000000000000000000000000000000BC
:1045000000000000000000000000000000000000AB
:10451000000000000000000000000000000000009B
:10452000000000000000000000000000000000008B
:10453000000000000000000000000000000000007B
:10454000010101010101010101010101010101015B
:104550000101000000000000000000000000000059
:104560000000000000000000000001010101010145
:104570000101010100000000000000000000000037
:10458000000001010101010101010101010101011D
:104590000101010100000000000000000000000017
:1045A000000000000000000000000000000000000B
:1045B00000000000000000000000000000000000FB
:1045C00000000000000000000000000000000000EB
:1045D00000000000000000000000000000000000DB
:1045E00000000000000000000000000000000000CB
:1045F00000000000000000000000000000000000BB
:1046000000000000000000000000000000000000AA
:10461000000000000000000000000000000000009A
:10462000000000000000000000000000000000008A
:10463000000000000000000000000000000000007A
:10464000000000000000000000000000000000006A
:10465000000000000000000000000000000000005A
:10466000000000000000000000000000000000004A
:10467000000000000000000000000000000000003A
:10468000000000000000000000000000000000002A
:10469000000000000070F0800000E070E00000808A
:1046A000F0700070F0800000E070E0000080F070BA
:1046B000000070F0800000E070E0000080F070000A
:1046C000000000000000000030FEFE30000000008E
:1046D000C0E070303060F0F0000000F6F60000003E
:1046E000000000000000000030FEFE30000000006E
:1046F000C0E070303070E08000000000C0E070303A
:10470000307060000000FEFE60303030F0E00000ED
:10471000000000000000000000C0E0703030706059
:1047200000000000C0E070303070E0C00000000009
:10473000F0F0603030F0C0603030F0E00000000099
:104740000000000000000000000000000000000069
:10475000000000000000031F383F0300033F381F24
:1047600003000000031F383F0300033F381F03000E
:10477000000000031F383F0300033F381F03000001
:104780000000003030000000003F3F30000000001B
:104790008F9F38303098FFFF0000003F3F0000003F
:1047A0000303030303000000003F3F30000000004C
:1047B0000F1F3B3333331B0B000000000F1F38303B
:1047C0003038180000003F3F000000003F3F00006D
:1047D0000000003030000000000F1F383030381863
:1047E000000000000F1F383030381F0F000000009D
:1047F0003F3F0000003F3F0000003F3F000000003F
:1048000000000000000000000000000000000000A8
:104810000000000000000000000000000000000098
:104820000000000000000000000000000000000088
:104830000000000000000000000000000000000078
:104840000000000000000000000000000000000068
:104850000103030303030100000000000000000047
:104860000000000000000000000000000000000048
:104870000000000000000000000000000000000038
:104880000000000000000000000000000000000028
:104890000000000000000000000000000000000018
:1048A0000000000000000000000000000000000008
:1048B00000000000000000000000000000000000F8
:1048C00000000000000000000000000000000000E8
:1048D00000000000000000000000000000000000D8
:1048E00000000000000000000000000000000000C8
:1048F00000000000000000000000000000000000B8
:1049000000000000000000000000000000000000A7
:104910000000000000000000000000000000000097
:104920000000000000000000000000000000000087
:104930000000000000000000000000000000000077
:104940000000000000000000000000000000000067
:104950000000000000000000000000000000000057
:104960000000000000000000000000000000000047
:104970000000000000000000000000000000000037
:104980000000000000000000F414141414141414A7
:1049900014141414141414141414141414141414D7
:1049A00014141414141414141414141414141414C7
:1049B00014141414141414141414141414141414B7
:1049C00014141414141414141414141414141414A7
:1049D0001414141414141414141414141414141497
:1049E0001414141414141414F414141414141414A7
:1049F0001414141414141414141414141414141477
:104A00001414141414141414141414141414141466
:104A10001414141414141414141414141414141456
:104A20001414141414141414141414141414141446
:104A30001414141414141414141414141414141436
:104A400014141414141414F4FF00000000000000E7
:104A50000000000000000000000000000000000056
:104A60000000000000000000000000000000000046
:104A70000000000000000000000000000000000036
:104A80000000000000000000000000000000000026
:104A90000000000000000000000000000000000016
:104AA0000000000000000000FF0000000000000007
:104AB00000000000000000000000000000000000F6
:104AC00000000000000000000000000000000000E6
:104AD00000000000000000000000000000000000D6
:104AE00000000000000000000000000000000000C6
:104AF00000000000000000000000000000000000B6
:104B000000000000000000FFFF00000000000000A7
:104B10000000000000000000000000000000000095
:104B20000000000000000000000000000000000085
:104B30000000000000000000000000000000000075
:104B40000000000000000000000000000000000065
:104B50000000000000000000000000000000000055
:104B60000000000000000000FF0000000000000046
:104B70000000000000000000000000000000000035
:104B80000000000000000000000000000000000025
:104B90000000000000000000000000000000000015
:104BA0000000000000000000000000000000000005
:104BB00000000000000000000000000000000000F5
:104BC00000000000000000FFFF00000000000000E7
:104BD00000000000000000000000000000000000D5
:104BE00000000000000000000000000000000000C5
:104BF00000000000000000000000000000000000B5
:104C000000000000000000000000000000000000A4
:104C10000000000000000000000000000000000094
:104C20000000000000000000FF0000000000000085
:104C30000000000000000000000000000000000074
:104C40000000000000000000000000000000000064
:104C50000000000000000000000000000000000054
:104C60000000000000000000000000000000000044
:104C70000000000000000000000000000000000034
:104C800000000000000000FFFF0000000000000026
:104C90000000000000000000000000000000000014
:104CA0000000000000000000000000000000000004
:104CB00000000000000000000000000000000000F4
:104CC00000000000000000000000000000000000E4
:104CD00000000000000000000000000000000000D4
:104CE0000000000000000000FF00000000000000C5
:104CF00000000000000000000000000000000000B4
:104D000000000000000000000000000000000000A3
:104D10000000000000000000000000000000000093
:104D20000000000000000000000000000000000083
:104D30000000000000000000000000000000000073
:104D400000000000000000FFFF2020202020202085
:104D50002020202020202020202020202020202053
:104D60002020202020202020202020202020202043
:104D70002020202020202020202020202020202033
:104D80002020202020202020202020202020202023
:104D90002020202020202020202020202020202013
:104DA0002020202020202020FF2020202020202024
:104DB00020202020202020202020202020202020F3
:104DC00020202020202020202020202020202020E3
:104DD00020202020202020202020202020202020D3
:104DE00020202020202020202020202020202020C3
:104DF00020202020202020202020202020202020B3
:104E000020202020202020FFFF00000000000000C4
:104E10000000000000000000000000000000000092
:104E20000000000000000000000000000000000082
:104E30000000000000000000000000000000000072
:104E40000000000000000000000000000000000062
:104E50000000000000000000000000000000000052
:104E60000000000000000000FF0000000000000043
:104E70000000000000000000000000000000000032
:104E80000000000000000000000000000000000022
:104E90000000000000000000000000000000000012
:104EA0000000000000000000000000000000000002
:104EB00000000000000000000000000000000000F2
:104EC00000000000000000FFFF00000000000000E4
:104ED00000000000000000000000000000000000D2
:104EE00000000000000000000000000000000000C2
:104EF00000000000000000000000000000000000B2
:104F000000000000000000000000000000000000A1
:104F10000000000000000000000000000000000091
:104F20000000000000000000FF0000000000000082
:104F30000000000000000000000000000000000071
:104F40000000000000000000000000000000000061
:104F50000000000000000000000000000000000051
:104F60000000000000000000000000000000000041
:104F70000000000000000000000000000000000031
:104F800000000000000000FFFF0000000000000023
:104F90000000000000000000000000000000000011
:104FA0000000000000000000000000000000000001
:104FB00000000000000000000000000000000000F1
:104FC00000000000000000000000000000000000E1
:104FD00000000000000000000000000000000000D1
:104FE0000000000000000000FF00000000000000C2
:104FF00000000000000000000000000000000000B1
:1050000000000000000000000000000000000000A0
:105010000000000000000000000000000000000090
:105020000000000000000000000000000000000080
:105030000000000000000000000000000000000070
:1050400000000000000000FFFF0000000000000062
:105050000000000000000000000000000000000050
:105060000000000000000000000000000000000040
:105070000000000000000000000000000000000030
:105080000000000000000000000000000000000020
:105090000000000000000000000000000000000010
:1050A0000000000000000000FF0000000000000001
:1050B00000000000000000000000000000000000F0
:1050C00000000000000000000000000000000000E0
:1050D00000000000000000000000000000000000D0
:1050E00000000000000000000000000000000000C0
:1050F00000000000000000000000000000000000B0
:1051000000000000000000FF7F4040404040404061
:10511000404040404040404040404040404040408F
:10512000404040404040404040404040404040407F
:10513000404040404040404040404040404040406F
:10514000404040404040404040404040404040405F
:10515000404040404040404040404040404040404F
:1051600040404040404040407F4040404040404000
:10517000404040404040404040404040404040402F
:10518000404040404040404040404040404040401F
:10519000404040404040404040404040404040400F
:1051A00040404040404040404040404040404040FF
:1051B00040404040404040404040404040404040EF
:1051C000404040404040407F0000000000000000A0
:1051D00000000000000000000000000000000000CF
:1051E00000000000000000000000000000000000BF
:1051F00000000000000000000000000000000000AF
:10520000000000000000000000000000000000009E
:10521000000000000000000000000000000000008E
:10522000000000000000000000000000000000007E
:10523000000000000000000000000000000000006E
:10524000000000000000000000000000000000005E
:10525000000000000000000000000000000000004E
:10526000000000000000000000000000000000003E
:10527000000000000000000000000000000000002E
:10528000000000000000000014141414141414147E
:1052900014141414141414141414141414141414CE
:1052A00014141414141414141414141414141414BE
:1052B00014141414141414141414141414141414AE
:1052C000141414141414141414141414141414149E
:1052D000141414141414141414141414141414148E
:1052E000141414141414141414141414141414147E
:1052F000141414141414141414141414141414146E
:10530000141414141414141414141414141414145D
:10531000141414141414141414141414141414144D
:10532000141414141414141414141414141414143D
:10533000141414141414141414141414141414142D
:1053400014141414141414140000000000000000BD
:10535000000000000000000000000000000000004D
:10536000000000000000000000000000000000003D
:10537000000000000000000000000000000000002D
:10538000000000000000000000000000000000001D
:105A00000000000000000000282828282828282856
:105A10002828282828282828282828282828282806
:105A200028282828282828282828282828282828F6
:105A300028282828282828282828282828282828E6
:105A400028282828282828282828282828282828D6
:105A500028282828282828282828282828282828C6
:105A600028282828282828282828282828282828B6
:105A700028282828282828282828282828282828A6
:105A80002828282828282828282828282828282896
:105A90002828282828282828282828282828282886
:105AA0002828282828282828282828282828282876
:105AB0002828282828282828282828282828282866
:105AC0002828282828282828000000000000000096
:105AD0000000000000000000000038FCFC3800005E
:105AE0000000000D0D000000000E1E00001E0E0044
:105AF000000000000000000020F8F820F8F8200066
:105B0000020F0F020F0F0200387C444747CC980069
:105B1000060C0838380F070030300080C0603000B5
:105B20000C060301000C0C0080D87CE4BCD84000BB
:105B3000070F0808070F0800000000000E0A0E00FB
:105B400000000000000000000000F0F80C0400005D
:105B5000000003070C0800000000040CF8F000002F
:105B60000000080C0703000080A0E0C0C0E0A08097
:105B70000002030101030200008080E0E080800059
:105B8000000000030300000000000000000000000F
:105B90000000101E0E000000808080808080800049
:105BA00000000000000000000000000000000000F5
:105BB0000000000C0C00000000000080C0603000FD
:105BC0000C06030100000000F8F80CC40CF8F0000B
:105BD00003070C080C070300001018FCFC00000071
:105BE0000008080F0F080800080C84C4643C180063
:105BF0000E0F0908080C0C00080C444444FCB800C3
:105C0000040C0808080F0700C0E0B098FCFC8000F6
:105C1000000000080F0F08007C7C444444C484004A
:105C2000040C0808080F0700F0F84C4444C080003A
:105C3000070F0808080F07000C0C0484C47C3C0004
:105C400000000F0F00000000B8FC444444FCB80002
:105C5000070F0808080F0700387C444444FCF8008C
:105C6000000808080C0703000000003030000000A6
:105C700000000006060000000000003030000000B8
:105C80000000080E060000000080C0603018080008
:105C900000000103060C0800002020202020200026
:105CA00000010101010101000008183060C08000FE
:105CB00000080C0603010000181C04C4E43C180092
:105CC0000000000D0D000000F0F008C8C8F8F0005A
:105CD000070F080B0B0B0100E0F0988C98F0E00028
:105CE0000F0F0000000F0F0004FCFC4444FCB80040
:105CF000080F0F08080F0700F0F80C04040C180038
:105D000003070C08080C060004FCFC040CF8F00067
:105D1000080F0F080C07030004FCFC44E40C1C00F3
:105D2000080F0F08080C0E0004FCFC44E40C1C00D7
:105D3000080F0F0800000000F0F80C84848C980015
:105D400003070C0808070F00FCFC404040FCFC0067
:105D50000F0F0000000F0F00000004FCFC04000007
:105D60000000080F0F08000000000004FCFC040005
:105D7000070F08080F07000004FCFCC0E03C1C00F3
:105D8000080F0F00010F0E0004FCFC0400000000CF
:105D9000080F0F08080C0E00FCFC387038FCFC00E3
:105DA0000F0F0000000F0F00FCFC3870E0FCFC003F
:105DB0000F0F0000000F0F00F8FC040404FCF800B3
:105DC000070F0808080F070004FCFC44447C380057
:105DD000080F0F0800000000F8FC040404FCF800A1
:105DE000070F080E3C3F270004FCFC44C4FC3800AD
:105DF000080F0F00000F0F00183C6444C49C1800EB
:105E0000060E0808080F0700001C0CFCFC0C1C0008
:105E10000000080F0F080000FCFC000000FCFC0064
:105E2000070F0808080F0700FCFC000000FCFC003E
:105E30000103060C06030100FCFC000000FCFC0052
:105E4000070F0E030E0F07000C3CF0E0F03C0C00B7
:105E50000C0F0301030F0C00000C7CC0C07C3C0045
:105E60000000080F0F0800001C0C84C4643C1C00D8
:105E70000E0F0908080C0E000000FCFC04040000D2
:105E800000000F0F080800003870E0C0800000001C
:105E90000000000103070E0000000404FCFC0000E9
:105EA000000008080F0F0000080C0603060C08008D
:105EB00000000000000000000000000000000000E2
:105EC00020202020202020200000030704000000C4
:105ED000000000000000000000A0A0A0E0C0000042
:105EE000070F0808070F080004FCFC2060C08000B2
:105EF000000F0F08080F0700C0E0202020604000BE
:105F0000070F0808080C040080C06024FCFC000097
:105F1000070F0808070F0800C0E0A0A0A0E0C0001D
:105F2000070F0808080C040040F8FC440C18000097
:105F3000080F0F0800000000C0E02020C0E0200093
:105F4000276F48487F3F000004FCFC4020E0C00071
:105F5000080F0F00000F0F00000020ECEC00000005
:105F60000000080F0F0800000000000020ECEC000B
:105F700000307040407F3F0004FCFC80C060200087
:105F8000080F0F01030E0C00000004FCFC000000D1
:105F90000000080F0F080000E0E060C060E0C000F3
:105FA0000F0F0007000F0F0020E0C02020E0C0000E
:105FB000000F0F00000F0F00C0E0202020E0C00005
:105FC000070F0808080F070020E0C02020E0C000ED
:105FD000407F7F48080F0700C0E02020C0E020007D
:105FE000070F08487F7F400020E0C06020E0C0002D
:105FF000080F0F080000000040E0A02020604000D3
:10600000040C09090B0E04002020F8FC20200000DD
:106010000000070F080C0400E0E00000E0E00000D2
:10602000070F0808070F080000E0E00000E0E000AC
:106030000003070C0C070300E0E0008000E0E00034
:10604000070F0C070C0F07002060C080C060200005
:10605000080C0703070C0800E0E0000000E0E00087
:10606000474F4848683F1F00606020A0E060200064
:106070000C0E0B09080C0C00004040F8BC04040096
:10608000000000070F080800000000BCBC00000072
:106090000000000F0F000000000404BCF8404000A6
:1060A0000008080F07000000080C040C080C04008E
:1060B00000000000000000000000000000000000E0
:1060C00000000000000000000000000000000000D0
:1060D00000000000000000000000000000000000C0
:1060E00000F0F0F0F00000000000000000017F7FF1
:1060F0000100000000000000001C1C1C1C0000002F
:10610000000080E0703C9CEC703C1C0C0000000027
:10611000000000000000000000000000000000007F
:1061200000000000000000E0E000000000E0E000EF
:106130000086E6FF9F868686E6FF9F8600011F1F7A
:10614000010101011F1F0101000080C0E060F8F89B
:10615000E0E0C000000003070F1CFFFFF1E1810039
:106160000000070F1F107F7F1F0F070080E0606097
:10617000E0800000E0E020000F3F3030BFFFFCFF78
:106180003730F0C00000101E0F03071F18181F073C
:106190000000C0E020E0E0C00000000080E0FF3F21
:1061A000F8EF87C7FC3C0400070F1F18101B0F0FE8
:1061B0001D10180800808CCC7C3800000000000006
:1061C00000000000000000000000000000000000CF
:1061D000000000000000000000000000000080E05F
:1061E000F0380C040000000000FEFFFF010000007A
:1061F000000000000000030F1F38604000040C384E
:10620000F0E08000000000000000000001FFFFFE41
:1062100000000000004060381F0F03000000000075
:10622000000000000000C0C00000000000426666E0
:106230007E3CFFFF3C7E666600000000000003031A
:10624000000000000000000000008080000000004E
:10625000001010101010FFFF1010101000000000B0
:106260000000030300000000000000000000000028
:10627000000000000000000000000000000000001E
:1062800000808CCC7C380000000000000000000082
:10629000000000000000000000101010101010108E
:1062A00010101010000000000000000000000000AE
:1062B00000000000000000000000000000000000DE
:1062C000000000000000000000001C1C1C1C00005E
:1062D000000000000000000000000000E0F83C0C9E
:1062E0000000000080F07C1F030000000060783E8A
:1062F0000F01000000000000000080C0E06020608E
:10630000E0C0800000FEFFFF0100000001FFFFFE73
:106310000001070F1E1810181E0F070100008080D3
:1063200080C0E0E0000000000000000000FFFFFF70
:106330000000000000001010101F1F1F10101000A0
:106340000080C06020202060E0C0800000030303C4
:1063500080C060383F1F0700001C1E1B191818184A
:10636000181F1F000080C0E0202060E0C0800000F7
:10637000000303031010183FEFE7800000070F1F12
:10638000101010181F0F0700000000000000C0E0F0
:10639000F0F0000000C0F0B88E8781FFFFFF808022
:1063A000000000000010101F1F1F10100000E0E090
:1063B000606060606060600000003F3F180808187F
:1063C000F8F0E00000070F1B1010101C1F0F030057
:1063D000000080C0C0602020E0E0C00000FCFFFFA3
:1063E0003118080818F8F0E00001070F1C18101009
:1063F000180F0F030000C0E0E060606060E0E06044
:10640000000003030000E0F81F0700000000000088
:10641000001F1F1F000000000080C0E0602020203F
:1064200060E0C0800087EFEF3C18383078EFCF8312
:1064300000070F0F18101010181F0F070000C0C022
:10644000E0202020E0C08000001F3F7F60404060CF
:1064500030FFFFFE00000C1C1C1010180F0F030073
:10646000000000000000000000000000000000002C
